{
  "contractName": "Account",
  "abi": [
    {
      "anonymous": false,
      "inputs": [
        {
          "indexed": false,
          "internalType": "string",
          "name": "userId",
          "type": "string"
        },
        {
          "indexed": false,
          "internalType": "string",
          "name": "ipfsAddress",
          "type": "string"
        }
      ],
      "name": "ModifyAccountLog",
      "type": "event"
    },
    {
      "inputs": [
        {
          "internalType": "string",
          "name": "",
          "type": "string"
        }
      ],
      "name": "accounts",
      "outputs": [
        {
          "internalType": "string",
          "name": "",
          "type": "string"
        }
      ],
      "stateMutability": "view",
      "type": "function",
      "constant": true
    },
    {
      "inputs": [
        {
          "internalType": "string",
          "name": "_id",
          "type": "string"
        },
        {
          "internalType": "string",
          "name": "ipfsAddress",
          "type": "string"
        }
      ],
      "name": "CreateAccount",
      "outputs": [],
      "stateMutability": "nonpayable",
      "type": "function"
    },
    {
      "inputs": [
        {
          "internalType": "string",
          "name": "_id",
          "type": "string"
        }
      ],
      "name": "GetAccountData",
      "outputs": [
        {
          "internalType": "string",
          "name": "",
          "type": "string"
        }
      ],
      "stateMutability": "view",
      "type": "function",
      "constant": true
    }
  ],
  "bytecode": "0x608060405234801561001057600080fd5b506108f5806100206000396000f3fe608060405234801561001057600080fd5b50600436106100415760003560e01c806304b7ac8a14610046578063303904141461007657806390127e6c146100a6575b600080fd5b610060600480360381019061005b91906103eb565b6100c2565b60405161006d91906104b3565b60405180910390f35b610090600480360381019061008b91906103eb565b610172565b60405161009d91906104b3565b60405180910390f35b6100c060048036038101906100bb91906104d5565b610228565b005b60606000826040516100d49190610589565b908152602001604051809103902080546100ed906105cf565b80601f0160208091040260200160405190810160405280929190818152602001828054610119906105cf565b80156101665780601f1061013b57610100808354040283529160200191610166565b820191906000526020600020905b81548152906001019060200180831161014957829003601f168201915b50505050509050919050565b60008180516020810182018051848252602083016020850120818352809550505050505060009150905080546101a7906105cf565b80601f01602080910402602001604051908101604052809291908181526020018280546101d3906105cf565b80156102205780601f106101f557610100808354040283529160200191610220565b820191906000526020600020905b81548152906001019060200180831161020357829003601f168201915b505050505081565b806000836040516102399190610589565b9081526020016040518091039020908161025391906107b6565b507f014c6ae2fc9dd9e2e081c1ffc915db7a8a610da7ce24c66ede5c8b4f2e500b168282604051610285929190610888565b60405180910390a15050565b6000604051905090565b600080fd5b600080fd5b600080fd5b600080fd5b6000601f19601f8301169050919050565b7f4e487b7100000000000000000000000000000000000000000000000000000000600052604160045260246000fd5b6102f8826102af565b810181811067ffffffffffffffff82111715610317576103166102c0565b5b80604052505050565b600061032a610291565b905061033682826102ef565b919050565b600067ffffffffffffffff821115610356576103556102c0565b5b61035f826102af565b9050602081019050919050565b82818337600083830152505050565b600061038e6103898461033b565b610320565b9050828152602081018484840111156103aa576103a96102aa565b5b6103b584828561036c565b509392505050565b600082601f8301126103d2576103d16102a5565b5b81356103e284826020860161037b565b91505092915050565b6000602082840312156104015761040061029b565b5b600082013567ffffffffffffffff81111561041f5761041e6102a0565b5b61042b848285016103bd565b91505092915050565b600081519050919050565b600082825260208201905092915050565b60005b8381101561046e578082015181840152602081019050610453565b60008484015250505050565b600061048582610434565b61048f818561043f565b935061049f818560208601610450565b6104a8816102af565b840191505092915050565b600060208201905081810360008301526104cd818461047a565b905092915050565b600080604083850312156104ec576104eb61029b565b5b600083013567ffffffffffffffff81111561050a576105096102a0565b5b610516858286016103bd565b925050602083013567ffffffffffffffff811115610537576105366102a0565b5b610543858286016103bd565b9150509250929050565b600081905092915050565b600061056382610434565b61056d818561054d565b935061057d818560208601610450565b80840191505092915050565b60006105958284610558565b915081905092915050565b7f4e487b7100000000000000000000000000000000000000000000000000000000600052602260045260246000fd5b600060028204905060018216806105e757607f821691505b6020821081036105fa576105f96105a0565b5b50919050565b60008190508160005260206000209050919050565b60006020601f8301049050919050565b600082821b905092915050565b6000600883026106627fffffffffffffffffffffffffffffffffffffffffffffffffffffffffffffffff82610625565b61066c8683610625565b95508019841693508086168417925050509392505050565b6000819050919050565b6000819050919050565b60006106b36106ae6106a984610684565b61068e565b610684565b9050919050565b6000819050919050565b6106cd83610698565b6106e16106d9826106ba565b848454610632565b825550505050565b600090565b6106f66106e9565b6107018184846106c4565b505050565b5b818110156107255761071a6000826106ee565b600181019050610707565b5050565b601f82111561076a5761073b81610600565b61074484610615565b81016020851015610753578190505b61076761075f85610615565b830182610706565b50505b505050565b600082821c905092915050565b600061078d6000198460080261076f565b1980831691505092915050565b60006107a6838361077c565b9150826002028217905092915050565b6107bf82610434565b67ffffffffffffffff8111156107d8576107d76102c0565b5b6107e282546105cf565b6107ed828285610729565b600060209050601f831160018114610820576000841561080e578287015190505b610818858261079a565b865550610880565b601f19841661082e86610600565b60005b8281101561085657848901518255600182019150602085019450602081019050610831565b86831015610873578489015161086f601f89168261077c565b8355505b6001600288020188555050505b505050505050565b600060408201905081810360008301526108a2818561047a565b905081810360208301526108b6818461047a565b9050939250505056fea2646970667358221220244e2f010af3fcd35acc33819ca8fc9524a39326e16da81afbbae1e5e7dd616764736f6c63430008110033",
  "immutableReferences": {},
  "source": "pragma solidity ^0.8.17;\r\n\r\ncontract Account{\r\n\r\n event ModifyAccountLog(string userId,string ipfsAddress);\r\n\r\n mapping(string => string) public accounts;\r\n\r\n    function CreateAccount(string memory _id, string memory ipfsAddress) public {\r\n        accounts[_id] = ipfsAddress;\r\n        emit ModifyAccountLog(_id,ipfsAddress);\r\n    }\r\n\r\n    function GetAccountData(string memory _id) public view returns (string memory) {\r\n        return accounts[_id];\r\n    }\r\n\r\n}",
  "sourcePath": "D:\\SmartContract\\contracts\\Acount.sol",
  "compiler": {
    "name": "solc",
    "version": "0.8.17+commit.8df45f5f.Emscripten.clang"
  },
  "schemaVersion": "3.4.13",
  "updatedAt": "2023-05-23T15:24:21.241Z",
  "networkType": "ethereum",
  "devdoc": {
    "kind": "dev",
    "methods": {},
    "version": 1
  },
  "userdoc": {
    "kind": "user",
    "methods": {},
    "version": 1
  }
}