{
  "contractName": "MiaoToken",
  "abi": [
    {
      "inputs": [],
      "stateMutability": "payable",
      "type": "constructor",
      "payable": true
    },
    {
      "anonymous": false,
      "inputs": [
        {
          "indexed": true,
          "internalType": "address",
          "name": "owner",
          "type": "address"
        },
        {
          "indexed": true,
          "internalType": "address",
          "name": "spender",
          "type": "address"
        },
        {
          "indexed": false,
          "internalType": "uint256",
          "name": "value",
          "type": "uint256"
        }
      ],
      "name": "Approval",
      "type": "event"
    },
    {
      "anonymous": false,
      "inputs": [
        {
          "indexed": false,
          "internalType": "string",
          "name": "docId",
          "type": "string"
        },
        {
          "indexed": false,
          "internalType": "uint256",
          "name": "SurveyFillCount",
          "type": "uint256"
        },
        {
          "indexed": false,
          "internalType": "uint256",
          "name": "returnReward",
          "type": "uint256"
        }
      ],
      "name": "CloseSurvey",
      "type": "event"
    },
    {
      "anonymous": false,
      "inputs": [
        {
          "indexed": false,
          "internalType": "address",
          "name": "creatorAddress",
          "type": "address"
        },
        {
          "indexed": false,
          "internalType": "uint256",
          "name": "MiaoTokenForContract",
          "type": "uint256"
        },
        {
          "indexed": true,
          "internalType": "address",
          "name": "ContractAddress",
          "type": "address"
        },
        {
          "indexed": false,
          "internalType": "uint256",
          "name": "MiaoTokenForOwner",
          "type": "uint256"
        },
        {
          "indexed": true,
          "internalType": "address",
          "name": "OwnerAddress",
          "type": "address"
        }
      ],
      "name": "CreateSurvey",
      "type": "event"
    },
    {
      "anonymous": false,
      "inputs": [
        {
          "indexed": false,
          "internalType": "string",
          "name": "docId",
          "type": "string"
        },
        {
          "indexed": true,
          "internalType": "address",
          "name": "RewardFrom",
          "type": "address"
        },
        {
          "indexed": true,
          "internalType": "address",
          "name": "RewardTo",
          "type": "address"
        },
        {
          "indexed": false,
          "internalType": "uint256",
          "name": "Reward",
          "type": "uint256"
        },
        {
          "indexed": false,
          "internalType": "uint256",
          "name": "openReward",
          "type": "uint256"
        },
        {
          "indexed": false,
          "internalType": "uint256",
          "name": "fillCount",
          "type": "uint256"
        }
      ],
      "name": "FillSurvey",
      "type": "event"
    },
    {
      "anonymous": false,
      "inputs": [
        {
          "indexed": false,
          "internalType": "uint256",
          "name": "deadline",
          "type": "uint256"
        },
        {
          "indexed": false,
          "internalType": "uint256",
          "name": "nowTime",
          "type": "uint256"
        }
      ],
      "name": "LogTimeStamp",
      "type": "event"
    },
    {
      "anonymous": false,
      "inputs": [
        {
          "indexed": false,
          "internalType": "string",
          "name": "docId",
          "type": "string"
        },
        {
          "indexed": true,
          "internalType": "address",
          "name": "winnerAddress",
          "type": "address"
        },
        {
          "indexed": false,
          "internalType": "uint256",
          "name": "reward",
          "type": "uint256"
        }
      ],
      "name": "LotteryLog",
      "type": "event"
    },
    {
      "anonymous": false,
      "inputs": [
        {
          "indexed": true,
          "internalType": "address",
          "name": "from",
          "type": "address"
        },
        {
          "indexed": true,
          "internalType": "address",
          "name": "to",
          "type": "address"
        },
        {
          "indexed": false,
          "internalType": "uint256",
          "name": "value",
          "type": "uint256"
        },
        {
          "indexed": false,
          "internalType": "uint256",
          "name": "rate",
          "type": "uint256"
        }
      ],
      "name": "PurchaseToken",
      "type": "event"
    },
    {
      "anonymous": false,
      "inputs": [
        {
          "indexed": false,
          "internalType": "string",
          "name": "docId",
          "type": "string"
        },
        {
          "indexed": false,
          "internalType": "uint256",
          "name": "fillCount",
          "type": "uint256"
        },
        {
          "indexed": false,
          "internalType": "address[]",
          "name": "addressList",
          "type": "address[]"
        }
      ],
      "name": "TestLog",
      "type": "event"
    },
    {
      "anonymous": false,
      "inputs": [
        {
          "indexed": true,
          "internalType": "address",
          "name": "from",
          "type": "address"
        },
        {
          "indexed": true,
          "internalType": "address",
          "name": "to",
          "type": "address"
        },
        {
          "indexed": false,
          "internalType": "uint256",
          "name": "value",
          "type": "uint256"
        }
      ],
      "name": "Transfer",
      "type": "event"
    },
    {
      "anonymous": false,
      "inputs": [
        {
          "indexed": true,
          "internalType": "address",
          "name": "from",
          "type": "address"
        },
        {
          "indexed": true,
          "internalType": "address",
          "name": "to",
          "type": "address"
        },
        {
          "indexed": false,
          "internalType": "uint256",
          "name": "value",
          "type": "uint256"
        }
      ],
      "name": "WithdrawETH",
      "type": "event"
    },
    {
      "inputs": [
        {
          "internalType": "string",
          "name": "",
          "type": "string"
        }
      ],
      "name": "fillUserCount",
      "outputs": [
        {
          "internalType": "uint256",
          "name": "",
          "type": "uint256"
        }
      ],
      "stateMutability": "view",
      "type": "function",
      "constant": true
    },
    {
      "inputs": [
        {
          "internalType": "string",
          "name": "",
          "type": "string"
        }
      ],
      "name": "openUserCount",
      "outputs": [
        {
          "internalType": "uint256",
          "name": "",
          "type": "uint256"
        }
      ],
      "stateMutability": "view",
      "type": "function",
      "constant": true
    },
    {
      "inputs": [
        {
          "internalType": "string",
          "name": "",
          "type": "string"
        }
      ],
      "name": "settingExists",
      "outputs": [
        {
          "internalType": "bool",
          "name": "",
          "type": "bool"
        }
      ],
      "stateMutability": "view",
      "type": "function",
      "constant": true
    },
    {
      "inputs": [
        {
          "internalType": "string",
          "name": "",
          "type": "string"
        },
        {
          "internalType": "address",
          "name": "",
          "type": "address"
        }
      ],
      "name": "surveyFillUsers",
      "outputs": [
        {
          "internalType": "bool",
          "name": "isWinner",
          "type": "bool"
        },
        {
          "internalType": "string",
          "name": "answerIpfsAddress",
          "type": "string"
        }
      ],
      "stateMutability": "view",
      "type": "function",
      "constant": true
    },
    {
      "inputs": [
        {
          "internalType": "string",
          "name": "",
          "type": "string"
        },
        {
          "internalType": "address",
          "name": "",
          "type": "address"
        }
      ],
      "name": "surveyRespondents",
      "outputs": [
        {
          "internalType": "bool",
          "name": "",
          "type": "bool"
        }
      ],
      "stateMutability": "view",
      "type": "function",
      "constant": true
    },
    {
      "inputs": [
        {
          "internalType": "address",
          "name": "account",
          "type": "address"
        },
        {
          "internalType": "uint256",
          "name": "amount",
          "type": "uint256"
        }
      ],
      "name": "mint",
      "outputs": [],
      "stateMutability": "nonpayable",
      "type": "function"
    },
    {
      "inputs": [
        {
          "internalType": "address",
          "name": "account",
          "type": "address"
        },
        {
          "internalType": "uint256",
          "name": "amount",
          "type": "uint256"
        }
      ],
      "name": "burn",
      "outputs": [],
      "stateMutability": "nonpayable",
      "type": "function"
    },
    {
      "inputs": [],
      "name": "name",
      "outputs": [
        {
          "internalType": "string",
          "name": "",
          "type": "string"
        }
      ],
      "stateMutability": "view",
      "type": "function",
      "constant": true
    },
    {
      "inputs": [],
      "name": "symbol",
      "outputs": [
        {
          "internalType": "string",
          "name": "",
          "type": "string"
        }
      ],
      "stateMutability": "view",
      "type": "function",
      "constant": true
    },
    {
      "inputs": [],
      "name": "decimals",
      "outputs": [
        {
          "internalType": "uint8",
          "name": "",
          "type": "uint8"
        }
      ],
      "stateMutability": "pure",
      "type": "function",
      "constant": true
    },
    {
      "inputs": [],
      "name": "totalSupply",
      "outputs": [
        {
          "internalType": "uint256",
          "name": "",
          "type": "uint256"
        }
      ],
      "stateMutability": "view",
      "type": "function",
      "constant": true
    },
    {
      "inputs": [
        {
          "internalType": "address",
          "name": "account",
          "type": "address"
        }
      ],
      "name": "balanceOf",
      "outputs": [
        {
          "internalType": "uint256",
          "name": "",
          "type": "uint256"
        }
      ],
      "stateMutability": "view",
      "type": "function",
      "constant": true
    },
    {
      "inputs": [
        {
          "internalType": "address",
          "name": "to",
          "type": "address"
        },
        {
          "internalType": "uint256",
          "name": "amount",
          "type": "uint256"
        }
      ],
      "name": "transfer",
      "outputs": [
        {
          "internalType": "bool",
          "name": "",
          "type": "bool"
        }
      ],
      "stateMutability": "nonpayable",
      "type": "function"
    },
    {
      "inputs": [
        {
          "internalType": "address",
          "name": "owner",
          "type": "address"
        },
        {
          "internalType": "address",
          "name": "spender",
          "type": "address"
        }
      ],
      "name": "allowance",
      "outputs": [
        {
          "internalType": "uint256",
          "name": "",
          "type": "uint256"
        }
      ],
      "stateMutability": "view",
      "type": "function",
      "constant": true
    },
    {
      "inputs": [
        {
          "internalType": "address",
          "name": "spender",
          "type": "address"
        },
        {
          "internalType": "uint256",
          "name": "amount",
          "type": "uint256"
        }
      ],
      "name": "approve",
      "outputs": [
        {
          "internalType": "bool",
          "name": "",
          "type": "bool"
        }
      ],
      "stateMutability": "nonpayable",
      "type": "function"
    },
    {
      "inputs": [
        {
          "internalType": "address",
          "name": "recipient",
          "type": "address"
        },
        {
          "internalType": "uint256",
          "name": "amount",
          "type": "uint256"
        }
      ],
      "name": "transferFromContract",
      "outputs": [
        {
          "internalType": "bool",
          "name": "",
          "type": "bool"
        }
      ],
      "stateMutability": "nonpayable",
      "type": "function"
    },
    {
      "inputs": [
        {
          "internalType": "address",
          "name": "creator",
          "type": "address"
        },
        {
          "internalType": "address",
          "name": "recipient",
          "type": "address"
        },
        {
          "internalType": "uint256",
          "name": "amount",
          "type": "uint256"
        }
      ],
      "name": "PublishSurvey",
      "outputs": [
        {
          "internalType": "bool",
          "name": "",
          "type": "bool"
        }
      ],
      "stateMutability": "nonpayable",
      "type": "function"
    },
    {
      "inputs": [
        {
          "internalType": "address",
          "name": "from",
          "type": "address"
        },
        {
          "internalType": "address",
          "name": "to",
          "type": "address"
        },
        {
          "internalType": "uint256",
          "name": "amount",
          "type": "uint256"
        }
      ],
      "name": "transferFrom",
      "outputs": [
        {
          "internalType": "bool",
          "name": "",
          "type": "bool"
        }
      ],
      "stateMutability": "nonpayable",
      "type": "function"
    },
    {
      "inputs": [
        {
          "internalType": "uint256",
          "name": "_value",
          "type": "uint256"
        },
        {
          "internalType": "uint256",
          "name": "exchangeRate",
          "type": "uint256"
        }
      ],
      "name": "purchase",
      "outputs": [],
      "stateMutability": "payable",
      "type": "function",
      "payable": true
    },
    {
      "inputs": [],
      "name": "withdraw",
      "outputs": [],
      "stateMutability": "nonpayable",
      "type": "function"
    },
    {
      "inputs": [
        {
          "internalType": "string",
          "name": "docId",
          "type": "string"
        },
        {
          "internalType": "uint256",
          "name": "reward",
          "type": "uint256"
        },
        {
          "internalType": "uint256",
          "name": "openReward",
          "type": "uint256"
        },
        {
          "internalType": "uint256",
          "name": "publishQty",
          "type": "uint256"
        },
        {
          "internalType": "uint256",
          "name": "lotteryCount",
          "type": "uint256"
        },
        {
          "internalType": "uint256",
          "name": "lottery",
          "type": "uint256"
        },
        {
          "internalType": "uint256",
          "name": "deadline",
          "type": "uint256"
        },
        {
          "internalType": "string",
          "name": "ipfsAddress",
          "type": "string"
        }
      ],
      "name": "createSurvey",
      "outputs": [],
      "stateMutability": "nonpayable",
      "type": "function"
    },
    {
      "inputs": [
        {
          "internalType": "address",
          "name": "from",
          "type": "address"
        },
        {
          "internalType": "string",
          "name": "docId",
          "type": "string"
        },
        {
          "internalType": "string",
          "name": "ipfsAddress",
          "type": "string"
        },
        {
          "internalType": "bool",
          "name": "isOpen",
          "type": "bool"
        }
      ],
      "name": "fillSurvey",
      "outputs": [],
      "stateMutability": "nonpayable",
      "type": "function"
    },
    {
      "inputs": [
        {
          "internalType": "string",
          "name": "docId",
          "type": "string"
        }
      ],
      "name": "closeSurvey",
      "outputs": [],
      "stateMutability": "nonpayable",
      "type": "function"
    },
    {
      "inputs": [
        {
          "internalType": "string",
          "name": "docId",
          "type": "string"
        }
      ],
      "name": "getRespondents",
      "outputs": [
        {
          "internalType": "address[]",
          "name": "",
          "type": "address[]"
        }
      ],
      "stateMutability": "view",
      "type": "function",
      "constant": true
    },
    {
      "inputs": [
        {
          "internalType": "string",
          "name": "docId",
          "type": "string"
        }
      ],
      "name": "getSurvey",
      "outputs": [
        {
          "internalType": "bytes",
          "name": "",
          "type": "bytes"
        }
      ],
      "stateMutability": "view",
      "type": "function",
      "constant": true
    },
    {
      "inputs": [
        {
          "internalType": "string",
          "name": "docId",
          "type": "string"
        },
        {
          "internalType": "address",
          "name": "from",
          "type": "address"
        }
      ],
      "name": "getFillSurvey",
      "outputs": [
        {
          "internalType": "bytes",
          "name": "",
          "type": "bytes"
        }
      ],
      "stateMutability": "view",
      "type": "function",
      "constant": true
    }
  ],
  "bytecode": "0x608060405233600560006101000a81548173ffffffffffffffffffffffffffffffffffffffff021916908373ffffffffffffffffffffffffffffffffffffffff1602179055506040518060400160405280600481526020017f4d69616f00000000000000000000000000000000000000000000000000000000815250600490816200008b919062000487565b506040518060400160405280600f81526020017f4d69616f204d69616f20546f6b656e000000000000000000000000000000000081525060039081620000d2919062000487565b50620000e36200020460201b60201c565b60ff16600a620000f49190620006f1565b620f424062000104919062000742565b60008190555060005460016000600560009054906101000a900473ffffffffffffffffffffffffffffffffffffffff1673ffffffffffffffffffffffffffffffffffffffff1673ffffffffffffffffffffffffffffffffffffffff16815260200190815260200160002081905550600560009054906101000a900473ffffffffffffffffffffffffffffffffffffffff1673ffffffffffffffffffffffffffffffffffffffff16600073ffffffffffffffffffffffffffffffffffffffff167fddf252ad1be2c89b69c2b068fc378daa952ba7f163c4a11628f55a4df523b3ef600054604051620001f691906200079e565b60405180910390a3620007bb565b60006012905090565b600081519050919050565b7f4e487b7100000000000000000000000000000000000000000000000000000000600052604160045260246000fd5b7f4e487b7100000000000000000000000000000000000000000000000000000000600052602260045260246000fd5b600060028204905060018216806200028f57607f821691505b602082108103620002a557620002a462000247565b5b50919050565b60008190508160005260206000209050919050565b60006020601f8301049050919050565b600082821b905092915050565b6000600883026200030f7fffffffffffffffffffffffffffffffffffffffffffffffffffffffffffffffff82620002d0565b6200031b8683620002d0565b95508019841693508086168417925050509392505050565b6000819050919050565b6000819050919050565b600062000368620003626200035c8462000333565b6200033d565b62000333565b9050919050565b6000819050919050565b620003848362000347565b6200039c62000393826200036f565b848454620002dd565b825550505050565b600090565b620003b3620003a4565b620003c081848462000379565b505050565b5b81811015620003e857620003dc600082620003a9565b600181019050620003c6565b5050565b601f82111562000437576200040181620002ab565b6200040c84620002c0565b810160208510156200041c578190505b620004346200042b85620002c0565b830182620003c5565b50505b505050565b600082821c905092915050565b60006200045c600019846008026200043c565b1980831691505092915050565b600062000477838362000449565b9150826002028217905092915050565b62000492826200020d565b67ffffffffffffffff811115620004ae57620004ad62000218565b5b620004ba825462000276565b620004c7828285620003ec565b600060209050601f831160018114620004ff5760008415620004ea578287015190505b620004f6858262000469565b86555062000566565b601f1984166200050f86620002ab565b60005b82811015620005395784890151825560018201915060208501945060208101905062000512565b8683101562000559578489015162000555601f89168262000449565b8355505b6001600288020188555050505b505050505050565b7f4e487b7100000000000000000000000000000000000000000000000000000000600052601160045260246000fd5b60008160011c9050919050565b6000808291508390505b6001851115620005fc57808604811115620005d457620005d36200056e565b5b6001851615620005e45780820291505b8081029050620005f4856200059d565b9450620005b4565b94509492505050565b600082620006175760019050620006ea565b81620006275760009050620006ea565b81600181146200064057600281146200064b5762000681565b6001915050620006ea565b60ff84111562000660576200065f6200056e565b5b8360020a9150848211156200067a57620006796200056e565b5b50620006ea565b5060208310610133831016604e8410600b8410161715620006bb5782820a905083811115620006b557620006b46200056e565b5b620006ea565b620006ca8484846001620005aa565b92509050818404811115620006e457620006e36200056e565b5b81810290505b9392505050565b6000620006fe8262000333565b91506200070b8362000333565b92506200073a7fffffffffffffffffffffffffffffffffffffffffffffffffffffffffffffffff848462000605565b905092915050565b60006200074f8262000333565b91506200075c8362000333565b92508282026200076c8162000333565b915082820484148315176200078657620007856200056e565b5b5092915050565b620007988162000333565b82525050565b6000602082019050620007b560008301846200078d565b92915050565b6149d680620007cb6000396000f3fe6080604052600436106101815760003560e01c80637142ebb0116100d1578063a16c89901161008a578063c6576e4711610064578063c6576e47146105e6578063dd62ed3e14610623578063edc5fcb814610660578063fe503e5d1461068957610181565b8063a16c899014610543578063a9059cbb14610580578063ba842abf146105bd57610181565b80637142ebb0146103fa578063746651b5146104375780637fd82bf0146104745780638c79aefe146104b257806395d89b41146104ef5780639dc29fac1461051a57610181565b80632fc5a0ad1161013e57806340c10f191161011857806340c10f191461034f5780635e1c84171461037857806370876c98146103a157806370a08231146103bd57610181565b80632fc5a0ad146102d0578063313ce5671461030d5780633ccfd60b1461033857610181565b806306fdde0314610186578063095ea7b3146101b157806318160ddd146101ee5780631a88f306146102195780631d93f42f1461025657806323b872dd14610293575b600080fd5b34801561019257600080fd5b5061019b6106c6565b6040516101a89190612e80565b60405180910390f35b3480156101bd57600080fd5b506101d860048036038101906101d39190612f4a565b610758565b6040516101e59190612fa5565b60405180910390f35b3480156101fa57600080fd5b5061020361076f565b6040516102109190612fcf565b60405180910390f35b34801561022557600080fd5b50610240600480360381019061023b9190612f4a565b610778565b60405161024d9190612fa5565b60405180910390f35b34801561026257600080fd5b5061027d60048036038101906102789190612fea565b61091c565b60405161028a9190612fa5565b60405180910390f35b34801561029f57600080fd5b506102ba60048036038101906102b59190612fea565b610abc565b6040516102c79190612fa5565b60405180910390f35b3480156102dc57600080fd5b506102f760048036038101906102f29190613172565b610bae565b6040516103049190612fcf565b60405180910390f35b34801561031957600080fd5b50610322610bdc565b60405161032f91906131d7565b60405180910390f35b34801561034457600080fd5b5061034d610be5565b005b34801561035b57600080fd5b5061037660048036038101906103719190612f4a565b610d29565b005b34801561038457600080fd5b5061039f600480360381019061039a919061321e565b610f00565b005b6103bb60048036038101906103b691906132bd565b611484565b005b3480156103c957600080fd5b506103e460048036038101906103df91906132fd565b6116d1565b6040516103f19190612fcf565b60405180910390f35b34801561040657600080fd5b50610421600480360381019061041c919061332a565b61171a565b60405161042e91906133db565b60405180910390f35b34801561044357600080fd5b5061045e60048036038101906104599190613172565b611830565b60405161046b9190612fa5565b60405180910390f35b34801561048057600080fd5b5061049b6004803603810190610496919061332a565b611866565b6040516104a99291906133fd565b60405180910390f35b3480156104be57600080fd5b506104d960048036038101906104d4919061332a565b611942565b6040516104e69190612fa5565b60405180910390f35b3480156104fb57600080fd5b50610504611987565b6040516105119190612e80565b60405180910390f35b34801561052657600080fd5b50610541600480360381019061053c9190612f4a565b611a19565b005b34801561054f57600080fd5b5061056a60048036038101906105659190613172565b611c71565b6040516105779190612fcf565b60405180910390f35b34801561058c57600080fd5b506105a760048036038101906105a29190612f4a565b611c9f565b6040516105b49190612fa5565b60405180910390f35b3480156105c957600080fd5b506105e460048036038101906105df919061342d565b611cb6565b005b3480156105f257600080fd5b5061060d60048036038101906106089190613172565b61206a565b60405161061a91906133db565b60405180910390f35b34801561062f57600080fd5b5061064a6004803603810190610645919061351b565b612188565b6040516106579190612fcf565b60405180910390f35b34801561066c57600080fd5b5061068760048036038101906106829190613172565b61220f565b005b34801561069557600080fd5b506106b060048036038101906106ab9190613172565b6127f6565b6040516106bd9190613619565b60405180910390f35b6060600380546106d59061366a565b80601f01602080910402602001604051908101604052809291908181526020018280546107019061366a565b801561074e5780601f106107235761010080835404028352916020019161074e565b820191906000526020600020905b81548152906001019060200180831161073157829003601f168201915b5050505050905090565b6000610765338484612967565b6001905092915050565b60008054905090565b60008030905082600160008373ffffffffffffffffffffffffffffffffffffffff1673ffffffffffffffffffffffffffffffffffffffff168152602001908152602001600020541015610800576040517f08c379a00000000000000000000000000000000000000000000000000000000081526004016107f7906136e7565b60405180910390fd5b82600160008373ffffffffffffffffffffffffffffffffffffffff1673ffffffffffffffffffffffffffffffffffffffff168152602001908152602001600020600082825461084f9190613736565b9250508190555082600160008673ffffffffffffffffffffffffffffffffffffffff1673ffffffffffffffffffffffffffffffffffffffff16815260200190815260200160002060008282546108a5919061376a565b925050819055508373ffffffffffffffffffffffffffffffffffffffff168173ffffffffffffffffffffffffffffffffffffffff167fddf252ad1be2c89b69c2b068fc378daa952ba7f163c4a11628f55a4df523b3ef856040516109099190612fcf565b60405180910390a3600191505092915050565b600081600160008673ffffffffffffffffffffffffffffffffffffffff1673ffffffffffffffffffffffffffffffffffffffff1681526020019081526020016000205410156109a0576040517f08c379a0000000000000000000000000000000000000000000000000000000008152600401610997906136e7565b60405180910390fd5b81600160008673ffffffffffffffffffffffffffffffffffffffff1673ffffffffffffffffffffffffffffffffffffffff16815260200190815260200160002060008282546109ef9190613736565b9250508190555081600160008573ffffffffffffffffffffffffffffffffffffffff1673ffffffffffffffffffffffffffffffffffffffff1681526020019081526020016000206000828254610a45919061376a565b925050819055508273ffffffffffffffffffffffffffffffffffffffff168473ffffffffffffffffffffffffffffffffffffffff167fddf252ad1be2c89b69c2b068fc378daa952ba7f163c4a11628f55a4df523b3ef84604051610aa99190612fcf565b60405180910390a3600190509392505050565b600080600260008673ffffffffffffffffffffffffffffffffffffffff1673ffffffffffffffffffffffffffffffffffffffff16815260200190815260200160002060003373ffffffffffffffffffffffffffffffffffffffff1673ffffffffffffffffffffffffffffffffffffffff16815260200190815260200160002054905082811015610b81576040517f08c379a0000000000000000000000000000000000000000000000000000000008152600401610b78906137ea565b60405180910390fd5b610b9785338584610b929190613736565b612967565b610ba2858585612a52565b60019150509392505050565b600b818051602081018201805184825260208301602085012081835280955050505050506000915090505481565b60006012905090565b3373ffffffffffffffffffffffffffffffffffffffff16600560009054906101000a900473ffffffffffffffffffffffffffffffffffffffff1673ffffffffffffffffffffffffffffffffffffffff1614610c75576040517f08c379a0000000000000000000000000000000000000000000000000000000008152600401610c6c9061387c565b60405180910390fd5b60003390508073ffffffffffffffffffffffffffffffffffffffff166108fc479081150290604051600060405180830381858888f19350505050158015610cc0573d6000803e3d6000fd5b508073ffffffffffffffffffffffffffffffffffffffff163073ffffffffffffffffffffffffffffffffffffffff167f6b1f4ce962fec27598edceab6195c77516c3df32025eaf0c38d0d4009ac3bd4847604051610d1e9190612fcf565b60405180910390a350565b3373ffffffffffffffffffffffffffffffffffffffff16600560009054906101000a900473ffffffffffffffffffffffffffffffffffffffff1673ffffffffffffffffffffffffffffffffffffffff1614610db9576040517f08c379a0000000000000000000000000000000000000000000000000000000008152600401610db09061387c565b60405180910390fd5b600073ffffffffffffffffffffffffffffffffffffffff168273ffffffffffffffffffffffffffffffffffffffff1603610e28576040517f08c379a0000000000000000000000000000000000000000000000000000000008152600401610e1f906138e8565b60405180910390fd5b80600080828254610e39919061376a565b9250508190555080600160008473ffffffffffffffffffffffffffffffffffffffff1673ffffffffffffffffffffffffffffffffffffffff1681526020019081526020016000206000828254610e8f919061376a565b925050819055508173ffffffffffffffffffffffffffffffffffffffff16600073ffffffffffffffffffffffffffffffffffffffff167fddf252ad1be2c89b69c2b068fc378daa952ba7f163c4a11628f55a4df523b3ef83604051610ef49190612fcf565b60405180910390a35050565b600683604051610f109190613944565b908152602001604051809103902060070160009054906101000a900460ff1615610f6f576040517f08c379a0000000000000000000000000000000000000000000000000000000008152600401610f66906139a7565b60405180910390fd5b600b83604051610f7f9190613944565b908152602001604051809103902054600684604051610f9e9190613944565b90815260200160405180910390206002015411610ff0576040517f08c379a0000000000000000000000000000000000000000000000000000000008152600401610fe790613a13565b60405180910390fd5b6009836040516110009190613944565b908152602001604051809103902060008573ffffffffffffffffffffffffffffffffffffffff1673ffffffffffffffffffffffffffffffffffffffff16815260200190815260200160002060009054906101000a900460ff1615611099576040517f08c379a000000000000000000000000000000000000000000000000000000000815260040161109090613aa5565b60405180910390fd5b60016009846040516110ab9190613944565b908152602001604051809103902060008673ffffffffffffffffffffffffffffffffffffffff1673ffffffffffffffffffffffffffffffffffffffff16815260200190815260200160002060006101000a81548160ff021916908315150217905550604051806040016040528060001515815260200183815250600a846040516111359190613944565b908152602001604051809103902060008673ffffffffffffffffffffffffffffffffffffffff1673ffffffffffffffffffffffffffffffffffffffff16815260200190815260200160002060008201518160000160006101000a81548160ff02191690831515021790555060208201518160010190816111b59190613c71565b509050506007836040516111c99190613944565b9081526020016040518091039020849080600181540180825580915050600190039060005260206000200160009091909190916101000a81548173ffffffffffffffffffffffffffffffffffffffff021916908373ffffffffffffffffffffffffffffffffffffffff1602179055506001600b8460405161124a9190613944565b908152602001604051809103902054611263919061376a565b600b846040516112739190613944565b9081526020016040518091039020819055506112b0846006856040516112999190613944565b908152602001604051809103902060000154610778565b6112ef576040517f08c379a00000000000000000000000000000000000000000000000000000000081526004016112e690613d8f565b60405180910390fd5b600081156113d3576113228560068660405161130b9190613944565b908152602001604051809103902060010154610778565b611361576040517f08c379a000000000000000000000000000000000000000000000000000000000815260040161135890613d8f565b60405180910390fd5b6006846040516113719190613944565b90815260200160405180910390206001015490506001600c856040516113979190613944565b9081526020016040518091039020546113b0919061376a565b600c856040516113c09190613944565b9081526020016040518091039020819055505b8473ffffffffffffffffffffffffffffffffffffffff163073ffffffffffffffffffffffffffffffffffffffff167fadce61792640b817d796a88718889cf178ef9666a4e07ea3391d35d834d7c464866006886040516114339190613944565b90815260200160405180910390206000015485600b8a6040516114569190613944565b9081526020016040518091039020546040516114759493929190613daf565b60405180910390a35050505050565b80826114909190613e2a565b3410156114d2576040517f08c379a00000000000000000000000000000000000000000000000000000000081526004016114c990613ea7565b60405180910390fd5b8160016000600560009054906101000a900473ffffffffffffffffffffffffffffffffffffffff1673ffffffffffffffffffffffffffffffffffffffff1673ffffffffffffffffffffffffffffffffffffffff168152602001908152602001600020541015611576576040517f08c379a000000000000000000000000000000000000000000000000000000000815260040161156d90613f13565b60405180910390fd5b81600160003373ffffffffffffffffffffffffffffffffffffffff1673ffffffffffffffffffffffffffffffffffffffff16815260200190815260200160002060008282546115c5919061376a565b925050819055508160016000600560009054906101000a900473ffffffffffffffffffffffffffffffffffffffff1673ffffffffffffffffffffffffffffffffffffffff1673ffffffffffffffffffffffffffffffffffffffff168152602001908152602001600020600082825461163d9190613736565b925050819055503373ffffffffffffffffffffffffffffffffffffffff16600560009054906101000a900473ffffffffffffffffffffffffffffffffffffffff1673ffffffffffffffffffffffffffffffffffffffff167f0aa63759aac970a3f5956e95fd8a561c815fee4afe483d9503f9f6e3655b9aeb84846040516116c5929190613f33565b60405180910390a35050565b6000600160008373ffffffffffffffffffffffffffffffffffffffff1673ffffffffffffffffffffffffffffffffffffffff168152602001908152602001600020549050919050565b60606000600a8460405161172e9190613944565b908152602001604051809103902060008473ffffffffffffffffffffffffffffffffffffffff1673ffffffffffffffffffffffffffffffffffffffff16815260200190815260200160002090508060000160009054906101000a900460ff166117cc576040518060400160405280600581526020017f66616c7365000000000000000000000000000000000000000000000000000000815250611803565b6040518060400160405280600481526020017f74727565000000000000000000000000000000000000000000000000000000008152505b816001016040516020016118189291906140c3565b60405160208183030381529060405291505092915050565b6008818051602081018201805184825260208301602085012081835280955050505050506000915054906101000a900460ff1681565b600a82805160208101820180518482526020830160208501208183528095505050505050602052806000526040600020600091509150508060000160009054906101000a900460ff16908060010180546118bf9061366a565b80601f01602080910402602001604051908101604052809291908181526020018280546118eb9061366a565b80156119385780601f1061190d57610100808354040283529160200191611938565b820191906000526020600020905b81548152906001019060200180831161191b57829003601f168201915b5050505050905082565b6009828051602081018201805184825260208301602085012081835280955050505050506020528060005260406000206000915091509054906101000a900460ff1681565b6060600480546119969061366a565b80601f01602080910402602001604051908101604052809291908181526020018280546119c29061366a565b8015611a0f5780601f106119e457610100808354040283529160200191611a0f565b820191906000526020600020905b8154815290600101906020018083116119f257829003601f168201915b5050505050905090565b3373ffffffffffffffffffffffffffffffffffffffff16600560009054906101000a900473ffffffffffffffffffffffffffffffffffffffff1673ffffffffffffffffffffffffffffffffffffffff1614611aa9576040517f08c379a0000000000000000000000000000000000000000000000000000000008152600401611aa09061387c565b60405180910390fd5b600073ffffffffffffffffffffffffffffffffffffffff168273ffffffffffffffffffffffffffffffffffffffff1603611b18576040517f08c379a0000000000000000000000000000000000000000000000000000000008152600401611b0f90614154565b60405180910390fd5b6000600160008473ffffffffffffffffffffffffffffffffffffffff1673ffffffffffffffffffffffffffffffffffffffff16815260200190815260200160002054905081811015611b9f576040517f08c379a0000000000000000000000000000000000000000000000000000000008152600401611b96906141c0565b60405180910390fd5b8181611bab9190613736565b600160008573ffffffffffffffffffffffffffffffffffffffff1673ffffffffffffffffffffffffffffffffffffffff1681526020019081526020016000208190555081600080828254611bff9190613736565b92505081905550600073ffffffffffffffffffffffffffffffffffffffff168373ffffffffffffffffffffffffffffffffffffffff167fddf252ad1be2c89b69c2b068fc378daa952ba7f163c4a11628f55a4df523b3ef84604051611c649190612fcf565b60405180910390a3505050565b600c818051602081018201805184825260208301602085012081835280955050505050506000915090505481565b6000611cac338484612a52565b6001905092915050565b7f58cc5f81f26d57c1171e155262697d68a77e10cf09149a9a93f367c98bac5df78242604051611ce7929190613f33565b60405180910390a1600888604051611cff9190613944565b908152602001604051809103902060009054906101000a900460ff1615611d5b576040517f08c379a0000000000000000000000000000000000000000000000000000000008152600401611d529061422c565b60405180910390fd5b6040518061012001604052808881526020018781526020018681526020018581526020018481526020018381526020018281526020016000151581526020013373ffffffffffffffffffffffffffffffffffffffff16815250600689604051611dc49190613944565b9081526020016040518091039020600082015181600001556020820151816001015560408201518160020155606082015181600301556080820151816004015560a0820151816005015560c0820151816006019081611e239190613c71565b5060e08201518160070160006101000a81548160ff0219169083151502179055506101008201518160070160016101000a81548173ffffffffffffffffffffffffffffffffffffffff021916908373ffffffffffffffffffffffffffffffffffffffff1602179055509050506001600889604051611ea19190613944565b908152602001604051809103902060006101000a81548160ff02191690831515021790555060008587611ed4919061424c565b8585611ee0919061424c565b878a611eec919061424c565b611ef6919061376a565b611f00919061376a565b90506000600a600183611f13919061424c565b611f1d9190613e2a565b9050611f4b600560009054906101000a900473ffffffffffffffffffffffffffffffffffffffff1682611c9f565b611f8a576040517f08c379a0000000000000000000000000000000000000000000000000000000008152600401611f81906142da565b60405180910390fd5b611f943083611c9f565b611fd3576040517f08c379a0000000000000000000000000000000000000000000000000000000008152600401611fca9061436c565b60405180910390fd5b600560009054906101000a900473ffffffffffffffffffffffffffffffffffffffff1673ffffffffffffffffffffffffffffffffffffffff163073ffffffffffffffffffffffffffffffffffffffff167fd19633ab2c424e896db59c3982e28ca245bb82f3d051eab03949b19f41bd4fc53385856040516120569392919061439b565b60405180910390a350505050505050505050565b6060600060068360405161207e9190613944565b9081526020016040518091039020905061209b8160000154612c90565b6120a88260020154612c90565b6120b58360030154612c90565b6120c28460040154612c90565b6120cf8560050154612c90565b856006018660070160009054906101000a900460ff16612124576040518060400160405280600581526020017f66616c736500000000000000000000000000000000000000000000000000000081525061215b565b6040518060400160405280600481526020017f74727565000000000000000000000000000000000000000000000000000000008152505b60405160200161217197969594939291906145e6565b604051602081830303815290604052915050919050565b6000600260008473ffffffffffffffffffffffffffffffffffffffff1673ffffffffffffffffffffffffffffffffffffffff16815260200190815260200160002060008373ffffffffffffffffffffffffffffffffffffffff1673ffffffffffffffffffffffffffffffffffffffff16815260200190815260200160002054905092915050565b60068160405161221f9190613944565b908152602001604051809103902060070160009054906101000a900460ff161561227e576040517f08c379a0000000000000000000000000000000000000000000000000000000008152600401612275906139a7565b60405180910390fd5b60068160405161228e9190613944565b90815260200160405180910390206005015442116122e1576040517f08c379a00000000000000000000000000000000000000000000000000000000081526004016122d8906146ef565b60405180910390fd5b60006122ec826127f6565b90507fbcd86a083856b4cc2d605284dfb08b30cb2bd16e80fb3b2cde23795873fb84ce82600b846040516123209190613944565b9081526020016040518091039020548360405161233f9392919061470f565b60405180910390a16000805b60068460405161235b9190613944565b9081526020016040518091039020600301548110156124f1576000835142448460405160200161238d93929190614775565b6040516020818303038152906040528051906020012060001c6123b091906147b2565b90506123f78482815181106123c8576123c76147e3565b5b60200260200101516006876040516123e09190613944565b908152602001604051809103902060040154610778565b612436576040517f08c379a000000000000000000000000000000000000000000000000000000000815260040161242d90613d8f565b60405180910390fd5b838181518110612449576124486147e3565b5b602002602001015173ffffffffffffffffffffffffffffffffffffffff167f7af87a158d5c6bba59c3b8473140529dd431f4cd89071881e354afea3f81e0c9866006886040516124999190613944565b9081526020016040518091039020600401546040516124b9929190614812565b60405180910390a282806124cc90614842565b935050835183106124dd57506124f1565b5080806124e990614842565b91505061234b565b5060006006846040516125049190613944565b908152602001604051809103902060020154600c856040516125269190613944565b90815260200160405180910390205414612644576000600c8560405161254c9190613944565b90815260200160405180910390205460068660405161256b9190613944565b9081526020016040518091039020600201546125879190613736565b90506006856040516125999190613944565b908152602001604051809103902060010154816125b6919061424c565b91506126036006866040516125cb9190613944565b908152602001604051809103902060070160019054906101000a900473ffffffffffffffffffffffffffffffffffffffff1683610778565b612642576040517f08c379a000000000000000000000000000000000000000000000000000000000815260040161263990613d8f565b60405180910390fd5b505b60006006856040516126569190613944565b90815260200160405180910390206002015484511461275c57600084516006876040516126839190613944565b90815260200160405180910390206002015461269f9190613736565b90506006866040516126b19190613944565b908152602001604051809103902060000154816126ce919061424c565b915061271b6006876040516126e39190613944565b908152602001604051809103902060070160019054906101000a900473ffffffffffffffffffffffffffffffffffffffff1683610778565b61275a576040517f08c379a000000000000000000000000000000000000000000000000000000000815260040161275190613d8f565b60405180910390fd5b505b600160068660405161276e9190613944565b908152602001604051809103902060070160006101000a81548160ff0219169083151502179055507f55e72956d5917e9a19fa191f227b57bd0b387cc6ae33ffbc95b3645d0da9e2c385600b876040516127c89190613944565b908152602001604051809103902054836040516127e79392919061488a565b60405180910390a15050505050565b606060008060078460405161280b9190613944565b908152602001604051809103902090506000600b8560405161282d9190613944565b90815260200160405180910390205467ffffffffffffffff81111561285557612854613047565b5b6040519080825280602002602001820160405280156128835781602001602082028036833780820191505090505b50905060005b600b866040516128999190613944565b90815260200160405180910390205481101561295b578281815481106128c2576128c16147e3565b5b9060005260206000200160009054906101000a900473ffffffffffffffffffffffffffffffffffffffff16828581518110612900576128ff6147e3565b5b602002602001019073ffffffffffffffffffffffffffffffffffffffff16908173ffffffffffffffffffffffffffffffffffffffff1681525050838061294590614842565b945050808061295390614842565b915050612889565b50809350505050919050565b80600260008573ffffffffffffffffffffffffffffffffffffffff1673ffffffffffffffffffffffffffffffffffffffff16815260200190815260200160002060008473ffffffffffffffffffffffffffffffffffffffff1673ffffffffffffffffffffffffffffffffffffffff168152602001908152602001600020819055508173ffffffffffffffffffffffffffffffffffffffff168373ffffffffffffffffffffffffffffffffffffffff167f8c5be1e5ebec7d5bd14f71427d1e84f3dd0314c0f7b2291e5b200ac8c7c3b92583604051612a459190612fcf565b60405180910390a3505050565b6000600160008573ffffffffffffffffffffffffffffffffffffffff1673ffffffffffffffffffffffffffffffffffffffff16815260200190815260200160002054905081811015612ad9576040517f08c379a0000000000000000000000000000000000000000000000000000000008152600401612ad090614914565b60405180910390fd5b600073ffffffffffffffffffffffffffffffffffffffff168373ffffffffffffffffffffffffffffffffffffffff1603612b48576040517f08c379a0000000000000000000000000000000000000000000000000000000008152600401612b3f90614980565b60405180910390fd5b8181612b549190613736565b600160008673ffffffffffffffffffffffffffffffffffffffff1673ffffffffffffffffffffffffffffffffffffffff1681526020019081526020016000208190555081600160008573ffffffffffffffffffffffffffffffffffffffff1673ffffffffffffffffffffffffffffffffffffffff16815260200190815260200160002054612be2919061376a565b600160008573ffffffffffffffffffffffffffffffffffffffff1673ffffffffffffffffffffffffffffffffffffffff168152602001908152602001600020819055508273ffffffffffffffffffffffffffffffffffffffff168473ffffffffffffffffffffffffffffffffffffffff167fddf252ad1be2c89b69c2b068fc378daa952ba7f163c4a11628f55a4df523b3ef84604051612c829190612fcf565b60405180910390a350505050565b606060008203612cd7576040518060400160405280600181526020017f30000000000000000000000000000000000000000000000000000000000000008152509050612deb565b600082905060005b60008214612d09578080612cf290614842565b915050600a82612d029190613e2a565b9150612cdf565b60008167ffffffffffffffff811115612d2557612d24613047565b5b6040519080825280601f01601f191660200182016040528015612d575781602001600182028036833780820191505090505b5090505b60008514612de457600182612d709190613736565b9150600a85612d7f91906147b2565b6030612d8b919061376a565b60f81b818381518110612da157612da06147e3565b5b60200101907effffffffffffffffffffffffffffffffffffffffffffffffffffffffffffff1916908160001a905350600a85612ddd9190613e2a565b9450612d5b565b8093505050505b919050565b600081519050919050565b600082825260208201905092915050565b60005b83811015612e2a578082015181840152602081019050612e0f565b60008484015250505050565b6000601f19601f8301169050919050565b6000612e5282612df0565b612e5c8185612dfb565b9350612e6c818560208601612e0c565b612e7581612e36565b840191505092915050565b60006020820190508181036000830152612e9a8184612e47565b905092915050565b6000604051905090565b600080fd5b600080fd5b600073ffffffffffffffffffffffffffffffffffffffff82169050919050565b6000612ee182612eb6565b9050919050565b612ef181612ed6565b8114612efc57600080fd5b50565b600081359050612f0e81612ee8565b92915050565b6000819050919050565b612f2781612f14565b8114612f3257600080fd5b50565b600081359050612f4481612f1e565b92915050565b60008060408385031215612f6157612f60612eac565b5b6000612f6f85828601612eff565b9250506020612f8085828601612f35565b9150509250929050565b60008115159050919050565b612f9f81612f8a565b82525050565b6000602082019050612fba6000830184612f96565b92915050565b612fc981612f14565b82525050565b6000602082019050612fe46000830184612fc0565b92915050565b60008060006060848603121561300357613002612eac565b5b600061301186828701612eff565b935050602061302286828701612eff565b925050604061303386828701612f35565b9150509250925092565b600080fd5b600080fd5b7f4e487b7100000000000000000000000000000000000000000000000000000000600052604160045260246000fd5b61307f82612e36565b810181811067ffffffffffffffff8211171561309e5761309d613047565b5b80604052505050565b60006130b1612ea2565b90506130bd8282613076565b919050565b600067ffffffffffffffff8211156130dd576130dc613047565b5b6130e682612e36565b9050602081019050919050565b82818337600083830152505050565b6000613115613110846130c2565b6130a7565b90508281526020810184848401111561313157613130613042565b5b61313c8482856130f3565b509392505050565b600082601f8301126131595761315861303d565b5b8135613169848260208601613102565b91505092915050565b60006020828403121561318857613187612eac565b5b600082013567ffffffffffffffff8111156131a6576131a5612eb1565b5b6131b284828501613144565b91505092915050565b600060ff82169050919050565b6131d1816131bb565b82525050565b60006020820190506131ec60008301846131c8565b92915050565b6131fb81612f8a565b811461320657600080fd5b50565b600081359050613218816131f2565b92915050565b6000806000806080858703121561323857613237612eac565b5b600061324687828801612eff565b945050602085013567ffffffffffffffff81111561326757613266612eb1565b5b61327387828801613144565b935050604085013567ffffffffffffffff81111561329457613293612eb1565b5b6132a087828801613144565b92505060606132b187828801613209565b91505092959194509250565b600080604083850312156132d4576132d3612eac565b5b60006132e285828601612f35565b92505060206132f385828601612f35565b9150509250929050565b60006020828403121561331357613312612eac565b5b600061332184828501612eff565b91505092915050565b6000806040838503121561334157613340612eac565b5b600083013567ffffffffffffffff81111561335f5761335e612eb1565b5b61336b85828601613144565b925050602061337c85828601612eff565b9150509250929050565b600081519050919050565b600082825260208201905092915050565b60006133ad82613386565b6133b78185613391565b93506133c7818560208601612e0c565b6133d081612e36565b840191505092915050565b600060208201905081810360008301526133f581846133a2565b905092915050565b60006040820190506134126000830185612f96565b81810360208301526134248184612e47565b90509392505050565b600080600080600080600080610100898b03121561344e5761344d612eac565b5b600089013567ffffffffffffffff81111561346c5761346b612eb1565b5b6134788b828c01613144565b98505060206134898b828c01612f35565b975050604061349a8b828c01612f35565b96505060606134ab8b828c01612f35565b95505060806134bc8b828c01612f35565b94505060a06134cd8b828c01612f35565b93505060c06134de8b828c01612f35565b92505060e089013567ffffffffffffffff8111156134ff576134fe612eb1565b5b61350b8b828c01613144565b9150509295985092959890939650565b6000806040838503121561353257613531612eac565b5b600061354085828601612eff565b925050602061355185828601612eff565b9150509250929050565b600081519050919050565b600082825260208201905092915050565b6000819050602082019050919050565b61359081612ed6565b82525050565b60006135a28383613587565b60208301905092915050565b6000602082019050919050565b60006135c68261355b565b6135d08185613566565b93506135db83613577565b8060005b8381101561360c5781516135f38882613596565b97506135fe836135ae565b9250506001810190506135df565b5085935050505092915050565b6000602082019050818103600083015261363381846135bb565b905092915050565b7f4e487b7100000000000000000000000000000000000000000000000000000000600052602260045260246000fd5b6000600282049050600182168061368257607f821691505b6020821081036136955761369461363b565b5b50919050565b7f496e73756666696369656e742062616c616e6365000000000000000000000000600082015250565b60006136d1601483612dfb565b91506136dc8261369b565b602082019050919050565b60006020820190508181036000830152613700816136c4565b9050919050565b7f4e487b7100000000000000000000000000000000000000000000000000000000600052601160045260246000fd5b600061374182612f14565b915061374c83612f14565b925082820390508181111561376457613763613707565b5b92915050565b600061377582612f14565b915061378083612f14565b925082820190508082111561379857613797613707565b5b92915050565b7f4552524f523a206d79416c6c6f77616e6365203c20616d6f756e740000000000600082015250565b60006137d4601b83612dfb565b91506137df8261379e565b602082019050919050565b60006020820190508181036000830152613803816137c7565b9050919050565b7f4552524f52203a20596f7520646f6e27742068617665207065726d697373696f60008201527f6e00000000000000000000000000000000000000000000000000000000000000602082015250565b6000613866602183612dfb565b91506138718261380a565b604082019050919050565b6000602082019050818103600083015261389581613859565b9050919050565b7f4552524f523a206d696e7420746f206164647265737320300000000000000000600082015250565b60006138d2601883612dfb565b91506138dd8261389c565b602082019050919050565b60006020820190508181036000830152613901816138c5565b9050919050565b600081905092915050565b600061391e82612df0565b6139288185613908565b9350613938818560208601612e0c565b80840191505092915050565b60006139508284613913565b915081905092915050565b7f53757276657920616c726561647920636c6f7365640000000000000000000000600082015250565b6000613991601583612dfb565b915061399c8261395b565b602082019050919050565b600060208201905081810360008301526139c081613984565b9050919050565b7f4e6f207375727665792063616e2066696c6c2120000000000000000000000000600082015250565b60006139fd601483612dfb565b9150613a08826139c7565b602082019050919050565b60006020820190508181036000830152613a2c816139f0565b9050919050565b7f596f75206861766520616c726561647920726573706f6e64656420746f20746860008201527f6520737572766579000000000000000000000000000000000000000000000000602082015250565b6000613a8f602883612dfb565b9150613a9a82613a33565b604082019050919050565b60006020820190508181036000830152613abe81613a82565b9050919050565b60008190508160005260206000209050919050565b60006020601f8301049050919050565b600082821b905092915050565b600060088302613b277fffffffffffffffffffffffffffffffffffffffffffffffffffffffffffffffff82613aea565b613b318683613aea565b95508019841693508086168417925050509392505050565b6000819050919050565b6000613b6e613b69613b6484612f14565b613b49565b612f14565b9050919050565b6000819050919050565b613b8883613b53565b613b9c613b9482613b75565b848454613af7565b825550505050565b600090565b613bb1613ba4565b613bbc818484613b7f565b505050565b5b81811015613be057613bd5600082613ba9565b600181019050613bc2565b5050565b601f821115613c2557613bf681613ac5565b613bff84613ada565b81016020851015613c0e578190505b613c22613c1a85613ada565b830182613bc1565b50505b505050565b600082821c905092915050565b6000613c4860001984600802613c2a565b1980831691505092915050565b6000613c618383613c37565b9150826002028217905092915050565b613c7a82612df0565b67ffffffffffffffff811115613c9357613c92613047565b5b613c9d825461366a565b613ca8828285613be4565b600060209050601f831160018114613cdb5760008415613cc9578287015190505b613cd38582613c55565b865550613d3b565b601f198416613ce986613ac5565b60005b82811015613d1157848901518255600182019150602085019450602081019050613cec565b86831015613d2e5784890151613d2a601f891682613c37565b8355505b6001600288020188555050505b505050505050565b7f546f6b656e207472616e73666572206661696c65640000000000000000000000600082015250565b6000613d79601583612dfb565b9150613d8482613d43565b602082019050919050565b60006020820190508181036000830152613da881613d6c565b9050919050565b60006080820190508181036000830152613dc98187612e47565b9050613dd86020830186612fc0565b613de56040830185612fc0565b613df26060830184612fc0565b95945050505050565b7f4e487b7100000000000000000000000000000000000000000000000000000000600052601260045260246000fd5b6000613e3582612f14565b9150613e4083612f14565b925082613e5057613e4f613dfb565b5b828204905092915050565b7f4e6f7420656e6f75676820455448000000000000000000000000000000000000600082015250565b6000613e91600e83612dfb565b9150613e9c82613e5b565b602082019050919050565b60006020820190508181036000830152613ec081613e84565b9050919050565b7f4e6f7420656e6f756768204d69616f546f6b656e000000000000000000000000600082015250565b6000613efd601483612dfb565b9150613f0882613ec7565b602082019050919050565b60006020820190508181036000830152613f2c81613ef0565b9050919050565b6000604082019050613f486000830185612fc0565b613f556020830184612fc0565b9392505050565b7f7b22697357696e6e6572223a0000000000000000000000000000000000000000600082015250565b6000613f92600c83613908565b9150613f9d82613f5c565b600c82019050919050565b7f2c226970667341646472657373223a2200000000000000000000000000000000600082015250565b6000613fde601083613908565b9150613fe982613fa8565b601082019050919050565b600081546140018161366a565b61400b8186613908565b94506001821660008114614026576001811461403b5761406e565b60ff198316865281151582028601935061406e565b61404485613ac5565b60005b8381101561406657815481890152600182019150602081019050614047565b838801955050505b50505092915050565b7f227d000000000000000000000000000000000000000000000000000000000000600082015250565b60006140ad600283613908565b91506140b882614077565b600282019050919050565b60006140ce82613f85565b91506140da8285613913565b91506140e582613fd1565b91506140f18284613ff4565b91506140fc826140a0565b91508190509392505050565b7f4552524f523a206275726e2066726f6d20616464726573732030000000000000600082015250565b600061413e601a83612dfb565b915061414982614108565b602082019050919050565b6000602082019050818103600083015261416d81614131565b9050919050565b7f4552524f523a206e6f206d6f726520746f6b656e20746f206275726e00000000600082015250565b60006141aa601c83612dfb565b91506141b582614174565b602082019050919050565b600060208201905081810360008301526141d98161419d565b9050919050565b7f5375727665792073657474696e6720616c726561647920657869737473000000600082015250565b6000614216601d83612dfb565b9150614221826141e0565b602082019050919050565b6000602082019050818103600083015261424581614209565b9050919050565b600061425782612f14565b915061426283612f14565b925082820261427081612f14565b9150828204841483151761428757614286613707565b5b5092915050565b7f546f6b656e20746f206f776e6572207472616e73666572206661696c65640000600082015250565b60006142c4601e83612dfb565b91506142cf8261428e565b602082019050919050565b600060208201905081810360008301526142f3816142b7565b9050919050565b7f546f6b656e20746f20636f6e7472616374207472616e73666572206661696c6560008201527f6400000000000000000000000000000000000000000000000000000000000000602082015250565b6000614356602183612dfb565b9150614361826142fa565b604082019050919050565b6000602082019050818103600083015261438581614349565b9050919050565b61439581612ed6565b82525050565b60006060820190506143b0600083018661438c565b6143bd6020830185612fc0565b6143ca6040830184612fc0565b949350505050565b7f7b22726577617264223a00000000000000000000000000000000000000000000600082015250565b6000614408600a83613908565b9150614413826143d2565b600a82019050919050565b7f2c227075626c697368517479223a000000000000000000000000000000000000600082015250565b6000614454600e83613908565b915061445f8261441e565b600e82019050919050565b7f2c226c6f7474657279436f756e74223a00000000000000000000000000000000600082015250565b60006144a0601083613908565b91506144ab8261446a565b601082019050919050565b7f2c226c6f7474657279223a000000000000000000000000000000000000000000600082015250565b60006144ec600b83613908565b91506144f7826144b6565b600b82019050919050565b7f2c22646561646c696e65223a0000000000000000000000000000000000000000600082015250565b6000614538600c83613908565b915061454382614502565b600c82019050919050565b7f222c226973436c6f736564223a00000000000000000000000000000000000000600082015250565b6000614584600d83613908565b915061458f8261454e565b600d82019050919050565b7f7d00000000000000000000000000000000000000000000000000000000000000600082015250565b60006145d0600183613908565b91506145db8261459a565b600182019050919050565b60006145f1826143fb565b91506145fd828a613913565b915061460882614447565b91506146148289613913565b915061461f82614493565b915061462b8288613913565b9150614636826144df565b91506146428287613913565b915061464d8261452b565b91506146598286613913565b915061466482613fd1565b91506146708285613ff4565b915061467b82614577565b91506146878284613913565b9150614692826145c3565b915081905098975050505050505050565b7f446561646c696e6520686173206e6f7420706173736564207965740000000000600082015250565b60006146d9601b83612dfb565b91506146e4826146a3565b602082019050919050565b60006020820190508181036000830152614708816146cc565b9050919050565b600060608201905081810360008301526147298186612e47565b90506147386020830185612fc0565b818103604083015261474a81846135bb565b9050949350505050565b6000819050919050565b61476f61476a82612f14565b614754565b82525050565b6000614781828661475e565b602082019150614791828561475e565b6020820191506147a1828461475e565b602082019150819050949350505050565b60006147bd82612f14565b91506147c883612f14565b9250826147d8576147d7613dfb565b5b828206905092915050565b7f4e487b7100000000000000000000000000000000000000000000000000000000600052603260045260246000fd5b6000604082019050818103600083015261482c8185612e47565b905061483b6020830184612fc0565b9392505050565b600061484d82612f14565b91507fffffffffffffffffffffffffffffffffffffffffffffffffffffffffffffffff820361487f5761487e613707565b5b600182019050919050565b600060608201905081810360008301526148a48186612e47565b90506148b36020830185612fc0565b6148c06040830184612fc0565b949350505050565b7f4e6f206d6f6e657920746f207472616e73666572000000000000000000000000600082015250565b60006148fe601483612dfb565b9150614909826148c8565b602082019050919050565b6000602082019050818103600083015261492d816148f1565b9050919050565b7f5472616e7366657220746f206164647265737320300000000000000000000000600082015250565b600061496a601583612dfb565b915061497582614934565b602082019050919050565b600060208201905081810360008301526149998161495d565b905091905056fea2646970667358221220e41222fad7ffde98f35f05b621271b397db0e02de012986b867d61101499c87f64736f6c63430008110033",
  "immutableReferences": {},
  "source": "pragma solidity ^0.8.17;\n\ninterface IERC20 {\n    event Transfer(address indexed from, address indexed to, uint256 value);\n\n    event Approval(address indexed owner, address indexed spender, uint256 value);\n\n    function totalSupply() external view returns (uint256);\n\n    function balanceOf(address account) external view returns (uint256);\n    function allowance(address owner, address spender) external view returns (uint256);\n    \n    function approve(address spender, uint256 amount) external returns (bool);\n    function transfer(address to, uint256 amount) external returns (bool);\n    function transferFrom(address from, address to, uint256 amount) external returns (bool);\n  \n\n}\n\ncontract MiaoToken is IERC20 {\n    uint256 _totalSupply;\n    mapping(address => uint256) _balance;\n    mapping(address => mapping(address => uint256)) _allowance;\n    string _name;\n    string _symbol;\n    address _owner;\n\n     // c\n    struct Survey {\n        uint256 reward; // gy\n        uint256 openReward; // }y\n        uint256 publishQty; // oq\n        uint256 lotteryCount; // yq\n        uint256 lottery; // B\n        uint256 deadline; // g\n        string ipfsAddress; // Da}\n        bool isClosed; // O_\n        address creator;\n    }\n    struct Answers {\n        bool isWinner; //O_\n        string answerIpfsAddress; //IPFS|\n    }\n    // sMg\n    mapping(string => Survey) private surveys;\n    mapping(string => address[]) private surveyFillAddress;\n\n    //P_O_wgsb\n    mapping(string => bool) public settingExists;\n\n    mapping(string => mapping(address => bool)) public surveyRespondents;\n    mapping(string => mapping(address => Answers)) public surveyFillUsers;\n    mapping(string => uint256) public fillUserCount;\n    mapping(string => uint256) public openUserCount;\n\n\n    modifier onlyOwner() {\n        require(_owner == msg.sender, \"ERROR : You don't have permission\");\n        _;\n    }\n\n     constructor() public payable {\n        _owner =msg.sender;\n        _symbol = \"Miao\";\n        _name = \"Miao Miao Token\";\n        _totalSupply = 1000000 * 10**uint(decimals());\n        _balance[_owner] = _totalSupply;\n        emit Transfer(address(0), _owner, _totalSupply);\n    }\n\n    function mint(address account, uint256 amount) public onlyOwner {\n        require(account != address(0), \"ERROR: mint to address 0\");\n        _totalSupply += amount;\n        _balance[account] += amount;\n        emit Transfer(address(0), account, amount);\n    }\n\n    function burn(address account, uint256 amount) public onlyOwner {\n        require(account != address(0), \"ERROR: burn from address 0\");\n        uint256 accountBalance = _balance[account];\n        require(accountBalance >= amount, \"ERROR: no more token to burn\");\n        _balance[account] = accountBalance - amount;\n        _totalSupply -= amount;\n        emit Transfer(account, address(0), amount);\n    }\n\n    function name() public view returns (string memory) {\n        return _name;\n    }\n    function symbol() public view returns (string memory) {\n        return _symbol;\n    }\n    function decimals() public pure returns (uint8) {\n        return 18;\n    }\n\n    function totalSupply() public view returns (uint256) {\n        return _totalSupply;\n    }\n\n    function balanceOf(address account) public view returns (uint256) {\n        return _balance[account];\n    }\n\n    function _transfer(address from, address to, uint256 amount) internal {\n        uint256 myBalance = _balance[from];\n        require(myBalance >= amount, \"No money to transfer\");\n        require(to != address(0), \"Transfer to address 0\");\n\n        _balance[from] = myBalance - amount;\n        _balance[to] = _balance[to] + amount;\n        emit Transfer(from, to, amount);\n    }\n\n    function transfer(address to, uint256 amount) public returns (bool) {\n        _transfer(msg.sender, to, amount);\n        return true;\n    }\n\n    function allowance(address owner, address spender) public view returns (uint256) {\n        return _allowance[owner][spender];\n    }\n\n    function _approve(address owner, address spender, uint256 amount) internal {\n        _allowance[owner][spender] = amount;\n        emit Approval(owner, spender, amount);\n    }\n    \n    function approve(address spender, uint256 amount) public returns (bool) {\n        _approve(msg.sender, spender, amount);\n        return true;\n    }\n\n    function transferFromContract(address recipient, uint256 amount) public returns (bool) {\n        address sender = address(this);\n        require(_balance[sender] >= amount, \"Insufficient balance\");\n        _balance[sender] -= amount;\n        _balance[recipient] += amount;\n        emit Transfer(sender, recipient, amount);\n        return true;\n    }\n    function PublishSurvey(address creator,address recipient, uint256 amount) public returns (bool) {\n        require(_balance[creator] >= amount, \"Insufficient balance\");\n        _balance[creator] -= amount;\n        _balance[recipient] += amount;\n\n        emit Transfer(creator, recipient, amount);\n        return true;\n    }\n\n    function transferFrom(address from, address to, uint256 amount) public returns (bool) {\n        uint256 myAllowance = _allowance[from][msg.sender];\n        require(myAllowance >= amount, \"ERROR: myAllowance < amount\");\n\n        _approve(from, msg.sender, myAllowance - amount);\n        _transfer(from, to, amount);\n        return true;\n    }\n\n    event PurchaseToken(address indexed from, address indexed to, uint256 value, uint256 rate);\n\n     function purchase(uint256 _value,uint256 exchangeRate) external payable {\n        require(msg.value >= _value / exchangeRate, \"Not enough ETH\");\n        require(_balance[_owner] >= _value, \"Not enough MiaoToken\");\n\n            _balance[msg.sender] += _value;\n            _balance[_owner] -= _value;\n            emit PurchaseToken(_owner, msg.sender, _value,exchangeRate);\n        \n    }\n\n    event WithdrawETH(address indexed from, address indexed to, uint256 value);\n      function withdraw() public onlyOwner {\n        //$$\n        address payable owner = payable(msg.sender);\n        owner.transfer(address(this).balance);\n        emit WithdrawETH(address(this),owner,address(this).balance);\n    }\n\n\n\n    \n    //LOG\n\n\n   event CreateSurvey(address creatorAddress,uint256 MiaoTokenForContract,address indexed ContractAddress,uint256 MiaoTokenForOwner,address indexed OwnerAddress);\n   event LogTimeStamp(uint256 deadline, uint256 nowTime);\n\n    // \n    function createSurvey(string memory docId, uint256 reward,uint256 openReward, uint256 publishQty, uint256 lotteryCount, uint256 lottery, uint256 deadline, string memory ipfsAddress) external {\n\n      emit LogTimeStamp(deadline,block.timestamp);\n      require(!settingExists[docId], \"Survey setting already exists\");\n\n      surveys[docId] = Survey(reward,openReward, publishQty, lotteryCount, lottery, deadline, ipfsAddress, false,msg.sender);\n      settingExists[docId] = true;\n\n        //oe10%ownerALoX y+y+}y\n      uint256 total = reward * publishQty + lottery * lotteryCount+openReward* publishQty;\n\n      uint256 forOwner = total * 1 / 10;\n\n      require(transfer(_owner, forOwner), \"Token to owner transfer failed\");\n      require(transfer(address(this), total), \"Token to contract transfer failed\");\n      emit  CreateSurvey(msg.sender,total,address(this),forOwner,_owner);\n\n    }\n\n    event FillSurvey(string docId,address indexed RewardFrom,address indexed RewardTo,uint256 Reward,uint256 openReward,uint256 fillCount);\n\n    // g\n    function fillSurvey(address from,string memory docId, string memory ipfsAddress,bool isOpen ) external {\n        require(!surveys[docId].isClosed, \"Survey already closed\");\n        //require(surveys[docId].deadline > block.timestamp, \"Deadline has passed\");\n        require(surveys[docId].publishQty > fillUserCount[docId], \"No survey can fill! \");\n        require(!surveyRespondents[docId][from], \"You have already responded to the survey\");\n\n        // Ng[JO_gM\n        surveyRespondents[docId][from] = true;\n        //Ng[JfillUser\n        surveyFillUsers[docId][from] = Answers(false, ipfsAddress);\n        surveyFillAddress[docId].push(from);\n\n        fillUserCount[docId]=fillUserCount[docId]+1;\n        // oegy (from contract)\n        require(transferFromContract(from, surveys[docId].reward), \"Token transfer failed\");\n        //oe}y (from contract )\n        uint256 oReward=0;\n        if(isOpen){\n        require(transferFromContract(from, surveys[docId].openReward), \"Token transfer failed\");\n        oReward= surveys[docId].openReward;\n        openUserCount[docId]=openUserCount[docId]+1;\n        }\n       \n        emit FillSurvey(docId,address(this),from,surveys[docId].reward,oReward,fillUserCount[docId]);\n\n    }\n\n    event CloseSurvey(string docId,uint256 SurveyFillCount,uint256 returnReward);\n    event LotteryLog(string docId,address indexed winnerAddress,uint256 reward);\n    event TestLog(string docId,uint256 fillCount,address[] addressList);\n    // \n    function closeSurvey(string memory docId) external {\n        require(!surveys[docId].isClosed, \"Survey already closed\");\n        require(block.timestamp > surveys[docId].deadline, \"Deadline has not passed yet\");\n        address[] memory respondents= getRespondents(docId);\n        emit TestLog(docId,fillUserCount[docId],respondents);\n       \n     \n       uint256 count = 0;\n        for (uint256 i = 0; i <  surveys[docId].lotteryCount; i++) {\n            uint256 index = uint256(keccak256(abi.encodePacked(block.timestamp, block.difficulty, i))) % respondents.length;\n            require(transferFromContract(respondents[index], surveys[docId].lottery), \"Token transfer failed\");\n            emit LotteryLog(docId,respondents[index],surveys[docId].lottery);\n\n            count++;\n            if (count >= respondents.length) {\n                break;\n            }\n        }\n       uint256 returnOpenReward=0;\n       if(openUserCount[docId]!=surveys[docId].publishQty){  //nkewgn?}Hy  (oq-w}q)*}y\n            uint256 notOpenCount=surveys[docId].publishQty-openUserCount[docId];\n            returnOpenReward=notOpenCount*surveys[docId].openReward;\n\n            \n            require(transferFromContract(surveys[docId].creator, returnOpenReward), \"Token transfer failed\");\n\n       }\n       uint256 returnReward=0;\n        if(respondents.length!=surveys[docId].publishQty){ //kSy\n           \n            uint256 notFillSurveyCount=surveys[docId].publishQty-respondents.length; \n            returnReward=notFillSurveyCount*surveys[docId].reward;\n\n            require(transferFromContract(surveys[docId].creator, returnReward), \"Token transfer failed\");\n\n       }\n        surveys[docId].isClosed = true;\n        emit CloseSurvey(docId,fillUserCount[docId],returnReward);\n   \n    }\n\n   function getRespondents(string memory docId) public view returns (address[] memory) {\n    uint256 count = 0;\n    address[] storage fillUsersAddr = surveyFillAddress[docId];\n    address[] memory respondents = new address[]( fillUserCount[docId]);\n\n    for (uint256 i = 0; i < fillUserCount[docId]; i++) {\n            respondents[count] = fillUsersAddr[i];\n            count++;\n        \n    }\n\n    return respondents;\n}\n\nfunction getSurvey(string memory docId) public view returns (bytes memory) {\n    Survey storage survey = surveys[docId];\n    return abi.encodePacked(\n        '{\"reward\":', uint2str(survey.reward),\n        ',\"publishQty\":', uint2str(survey.publishQty),\n        ',\"lotteryCount\":', uint2str(survey.lotteryCount),\n        ',\"lottery\":', uint2str(survey.lottery),\n        ',\"deadline\":', uint2str(survey.deadline),\n        ',\"ipfsAddress\":\"', survey.ipfsAddress,\n        '\",\"isClosed\":', survey.isClosed ? \"true\" : \"false\",\n        '}'\n    );\n}\n\nfunction getFillSurvey(string memory docId,address from) public view returns (bytes memory) {\n    Answers storage fillUser = surveyFillUsers[docId][from];\n    return abi.encodePacked(\n        '{\"isWinner\":', fillUser.isWinner ? \"true\" : \"false\",\n        ',\"ipfsAddress\":\"', fillUser.answerIpfsAddress,\n        '\"}'\n    );\n}\nfunction uint2str(uint256 num) private pure returns (string memory) {\n    if (num == 0) {\n        return \"0\";\n    }\n    uint256 temp = num;\n    uint256 digits;\n    while (temp != 0) {\n        digits++;\n        temp /= 10;\n    }\n    bytes memory buffer = new bytes(digits);\n    while (num != 0) {\n        digits -= 1;\n        buffer[digits] = bytes1(uint8(48 + uint256(num % 10)));\n        num /= 10;\n    }\n    return string(buffer);\n}\n\n\n}",
  "sourcePath": "D:\\SmartContract\\contracts\\MiaoToken.sol",
  "compiler": {
    "name": "solc",
    "version": "0.8.17+commit.8df45f5f.Emscripten.clang"
  },
  "schemaVersion": "3.4.13",
  "updatedAt": "2023-05-23T15:24:21.027Z",
  "networkType": "ethereum",
  "devdoc": {
    "kind": "dev",
    "methods": {},
    "version": 1
  },
  "userdoc": {
    "kind": "user",
    "methods": {},
    "version": 1
  }
}